:100000000C9434000C9446000C9446000C9446006A
:100010000C9446000C9446000C9446000C94460048
:100020000C9446000C9446000C9446000C94460038
:100030000C9446000C9446000C9446000C94460028
:100040000C9446000C9446000C948D000C944600D1
:100050000C9446000C9446000C9446000C94460008
:100060000C9446000C94460011241FBECFEFD8E03C
:10007000DEBFCDBF22E0A0E0B1E001C01D92A23002
:10008000B207E1F70E94B0000C94B9000C94000094
:100090008091C00087FFFCCF9FB79078F8942091A3
:1000A0000001E22FF0E0EE5FFE4F80812F3F19F458
:1000B0001092000103C02F5F20930001992309F0E3
:1000C000789408958091C00087FF03C08091C60096
:1000D000F9CF08950F931F93072F182F292F332738
:1000E0000093C5006093C40088E98093C1008FE04D
:1000F0008093C20010920101109200010E946200E0
:1001000080E091E0E2E0F1E0DF019C011D922150EE
:100110003040E1F71F910F9108951F920F920FB693
:100120000F9211248F939F93EF93FF939091C600AA
:10013000809101018F3F49F0E82FF0E0EE5FFE4F24
:1001400090838F5F8093010102C010920101FF91A3
:10015000EF919F918F910F900FBE0F901F90189568
:1001600063E370E080E090E00E946A0080E090E04D
:060170000895F894FFCF92
:00000001FF
